:0400000007EF00F016
:100008005F82E6ED04F052EF05F0240E5A6E000E02
:100018005B6EAFEC03F01F0E5A6E000E5B6EAFEC1A
:1000280003F0F00E476E020E11EC05F0446E000E60
:10003800476E030E11EC05F0446E3F04D8A427EF79
:1000480000F029EF00F0D5EF00F0CDEF00F03B0E07
:100058004F6E030E34EC05F042C047F0486A000EBC
:100068004A6E0A0E496E2CEC04F047504F6E020E91
:1000780034EC05F0070E5E6E7D0EE82EFED75E2E80
:10008800FCD700F0370E4F6E030E34EC05F042C07B
:1000980047F0486A000E4A6E0A0E496E8EEC04F06C
:1000A80047504F6E020E34EC05F0070E5E6E7D0E63
:1000B800E82EFED75E2EFCD700F02F0E4F6E030EF3
:1000C80034EC05F043C047F0486A000E4A6E0A0E49
:1000D800496E2CEC04F047504F6E020E34EC05F0DC
:1000E800070E5E6E7D0EE82EFED75E2EFCD700F062
:1000F8001F0E4F6E030E34EC05F043C047F0486AFC
:10010800000E4A6E0A0E496E8EEC04F047504F6E90
:10011800020E34EC05F0070E5E6E7D0EE82EFED75B
:100128005E2EFCD700F03E0E4F6E030E34EC05F049
:1001380041C047F0486A000E4A6E0A0E496E2CEC20
:1001480004F047504F6E020E34EC05F0070E5E6E59
:100158007D0EE82EFED75E2EFCD700F03D0E4F6ECA
:10016800030E34EC05F041C047F0486A000E4A6EB1
:100178000A0E496E8EEC04F047504F6E020E34ECB6
:1001880005F0070E5E6E7D0EE82EFED75E2EFCD7BC
:1001980000F03F50D8A4D3EF00F0D5EF00F02BEFDC
:1001A80000F03F50D8A4DBEF00F0DDEF00F021EFC6
:1001B80000F0000E406E010E4064E5EF00F0E7EF3E
:1001C80000F0E9EF00F08EEF01F03B0E4F6E030EEA
:1001D80034EC05F042C047F0486A000E4A6E0A0E39
:1001E800496E2CEC04F047504F6E020E34EC05F0CB
:1001F8000B0E5E6E620EE82EFED75E2EFCD700D088
:10020800370E4F6E030E34EC05F042C047F0486AD3
:10021800000E4A6E0A0E496E8EEC04F047504F6E7F
:10022800020E34EC05F00B0E5E6E620EE82EFED761
:100238005E2EFCD700D02F0E4F6E030E34EC05F067
:1002480043C047F0486A000E4A6E0A0E496E2CEC0D
:1002580004F047504F6E020E34EC05F00B0E5E6E44
:10026800620EE82EFED75E2EFCD700D01F0E4F6E12
:10027800030E34EC05F043C047F0486A000E4A6E9E
:100288000A0E496E8EEC04F047504F6E020E34ECA5
:1002980005F00B0E5E6E620EE82EFED75E2EFCD7C2
:1002A80000D03E0E4F6E030E34EC05F041C047F00F
:1002B800486A000E4A6E0A0E496E2CEC04F047504C
:1002C8004F6E020E34EC05F00B0E5E6E620EE82ED9
:1002D800FED75E2EFCD700D03D0E4F6E030E34ECD9
:1002E80005F041C047F0486A000E4A6E0A0E496E92
:1002F8008EEC04F047504F6E020E34EC05F00B0EF6
:100308005E6E620EE82EFED75E2EFCD700D0402A25
:10031800DFEF00F0050E43265A0E436496EF01F016
:1003280098EF01F09BEF01F0422A000E436E3C0E5D
:100338004218D8A4A2EF01F0A4EF01F0A7EF01F052
:10034800412A000E426E3C0E4118D8A4AEEF01F0CF
:10035800B0EF01F021EF00F0000E416E21EF00F048
:1003680007EF00F051505210D8B4BDEF01F0BFEFC5
:1003780001F0DFEF01F051C0D9FF52C0DAFFDF30E2
:10038800E832E832070B536E080E5360CEEF01F0E7
:10039800D0EF01F0DFEF01F051C0D9FF52C0DAFF12
:1003A800DF50070B536E040E5364DDEF01F0DFEFEF
:1003B80001F044EF02F0000E596E74EF02F051C0E4
:1003C800D9FF52C0DAFFDF30E832E832070B536E4C
:1003D800010E546E532AF3EF01F0D8905436532E81
:1003E800F1EF01F05450FF0A556E51C0D9FF52C0C9
:1003F800DAFFDF50070B566E5650020D150EF32428
:10040800D96E000EF420DA6EDECF57F0DDCF58F04B
:1004180057C0D9FF58C0DAFF5550DF1665EF02F014
:1004280051C0D9FF52C0DAFFDF30E832E832070B9B
:10043800536E010E546E532A24EF02F0D8905436AE
:10044800532E22EF02F051C0D9FF52C0DAFFDF501D
:10045800070B556E5550020D150EF324D96E000E7C
:10046800F420DA6EDECF56F0DDCF57F056C0D9FF54
:1004780057C0DAFF5450DF1265EF02F065EF02F063
:1004880051C0D9FF52C0DAFFDFBC4DEF02F050EF88
:1004980002F0010E51EF02F0000E536E546A5450F0
:1004A800000AD8B45AEF02F042EF02F05350000AA3
:1004B800D8B4E3EF01F0010AD8B414EF02F042EF28
:1004C80002F051C047F052C048F051C0D9FF52C0A5
:1004D800DAFF000EDFBE010E496E76EC02F0596EAF
:1004E80059501200010E506E47504810D8B47FEF93
:1004F80002F081EF02F0A1EF02F047C0D9FF48C037
:10050800DAFFDF30E832E832070B4A6E080E4A603D
:1005180090EF02F092EF02F0A1EF02F047C0D9FF8E
:1005280048C0DAFFDF50070B4A6E040E4A649FEF9B
:1005380002F0A1EF02F004EF03F0000E506E19EF85
:1005480003F047C0D9FF48C0DAFFDF30E832E832AD
:10055800070B4A6E010E4B6E4A2AB5EF02F0D8908F
:100568004B364A2EB3EF02F04B50FF0A4C6E47C091
:10057800D9FF48C0DAFFDF50070B4D6E4D50020D12
:100588000B0EF324D96E000EF420DA6EDECF4EF097
:10059800DDCF4FF04EC0D9FF4FC0DAFF4C50DF1609
:1005A80019EF03F047C0D9FF48C0DAFFDF30E8325F
:1005B800E832070B4A6E010E4B6E4A2AE6EF02F04C
:1005C800D8904B364A2EE4EF02F047C0D9FF48C016
:1005D800DAFFDF50070B4C6E4C50020D0B0EF32464
:1005E800D96E000EF420DA6EDECF4DF0DDCF4EF07E
:1005F8004DC0D9FF4EC0DAFF4B50DF1219EF03F0A0
:1006080049504A6E4B6A4B50000AD8B40EEF03F0BB
:10061800A1EF02F04A50000AD8B4A5EF02F0010A8F
:10062800D8B4D6EF02F0A1EF02F0505012004750B4
:100638004810D8A422EF03F024EF03F08CEF03F066
:10064800AEEF03F020EE03F04750D9264850DA22E7
:10065800DF50D8A432EF03F034EF03F037EF03F0A4
:10066800F19C46EF03F020EE03F04750D92648509E
:10067800DA22DE04D8A443EF03F045EF03F046EF97
:1006880003F0F18CAEEF03F020EE03F04750D926CB
:100698004850DA22DF50D8A454EF03F056EF03F0A5
:1006A80059EF03F0F19A46EF03F020EE03F04750BC
:1006B800D9264850DA22DE04D8A465EF03F067EFA4
:1006C80003F046EF03F0F18A46EF03F020EE03F063
:1006D8004750D9264850DA22DF50D8A476EF03F0E5
:1006E80078EF03F07BEF03F0F19846EF03F020EE8C
:1006F80003F04750D9264850DA22DE04D8A487EF01
:1007080003F089EF03F046EF03F0F18846EF03F0BA
:1007180020EE02F04750D9264850DA22DF30E8327E
:10072800E832070B496E4A6A4A50000AD8B49FEF6C
:1007380003F024EF03F04950000AD8B426EF03F081
:10074800010AD8B448EF03F0030AD8B46AEF03F0FB
:1007580024EF03F012005A505B10D8A4B6EF03F050
:10076800B8EF03F0BAEF03F02BEF04F0020E5A24AF
:10077800516E000E5B20526EB6EC01F009EF04F0EA
:10078800F298F2925AC047F05BC048F01BEC03F0B5
:100798005AC0D9FF5BC0DAFFDECF47F0DDCF48F0A3
:1007A800D3EC05F0F28EF28CF2882BEF04F0F09681
:1007B800F0905AC047F05BC048F01BEC03F0F28E93
:1007C800F28C5AC0D9FF5BC0DAFFDECF47F0DDCF2D
:1007D80048F0C3EC05F0F086D9EF03F0F098F092FA
:1007E8005AC047F05BC048F01BEC03F0F28EF28C65
:1007F8005AC0D9FF5BC0DAFFDECF47F0DDCF48F043
:10080800B3EC05F0F088D9EF03F020EE02F05A506F
:10081800D9265B50DA22DF30E832E832070B5C6E0B
:100828005D6A5D50000AD8B41CEF04F0B8EF03F01D
:100838005C50000AD8B4C4EF03F0010AD8B4DBEF67
:1008480003F0030AD8B4F2EF03F0B8EF03F0120094
:10085800000E4C6E4ABE35EF04F033EF04F03BEF68
:1008680004F0496C4A1ED8B04A2A010E4C6E48BEA4
:1008780042EF04F040EF04F048EF04F0476C481EE4
:10088800D8B0482A010E4C1A000E4E6E000E4D6E5E
:1008980049504A10D8B453EF04F055EF04F07DEFF7
:1008A80004F0010E4B6E5DEF04F0D89049364A36DD
:1008B8004B2A4AAE62EF04F064EF04F059EF04F0FB
:1008C800D8904D364E364950475C4A504858D8A0C3
:1008D80070EF04F072EF04F077EF04F04950475ED0
:1008E8004A50485A4D80D8904A3249324B2E64EFCC
:1008F80004F04C50D8B483EF04F085EF04F089EF8E
:1009080004F04D6C4E1ED8B04E2A4DC047F04EC074
:1009180048F01200000E4C6E48BE97EF04F095EFB9
:1009280004F09DEF04F0476C481ED8B0482A010E29
:100938004C6E4ABEA4EF04F0A2EF04F0A8EF04F056
:10094800496C4A1ED8B04A2A49504A10D8B4AFEF69
:1009580004F0B1EF04F0D5EF04F0010E4B6EB9EFDF
:1009680004F0D89049364A364B2A4AAEBEEF04F016
:10097800C0EF04F0B5EF04F04950475C4A504858BE
:10098800D8A0C9EF04F0CBEF04F0CFEF04F0495042
:10099800475E4A50485AD8904A3249324B2EC0EFE7
:1009A80004F04C50D8B4DBEF04F0DDEF04F0E1EFD5
:1009B80004F0476C481ED8B0482A47C047F048C0E2
:1009C80048F012000600FACF45F0FBCF46F0F2A837
:1009D800F0EF04F0F2EF04F0FBEF04F0F2A2F7EF0F
:1009E80004F0F9EF04F0FBEF04F087EC05F0F0A653
:1009F80000EF05F002EF05F00BEF05F0F0A007EFB0
:100A080005F009EF05F00BEF05F06FEC05F046C0B7
:100A1800FBFF45C0FAFF5F9211004B6E010E4A6E54
:100A2800040E4B641AEF05F01CEF05F020EF05F0FB
:100A3800000E4A6E32EF05F04B50020D150EF324EE
:100A4800D96E000EF420DA6EDECF48F0DDCF49F023
:100A580048C0D9FF49C0DAFF47C0DFFF4A5012003B
:100A6800526E040E52643BEF05F03DEF05F03FEF88
:100A780005F051EF05F05250020D0B0EF324D96E1C
:100A8800000EF420DA6EDECF50F0DDCF51F050C00A
:100A9800D9FF51C0DAFF4FC0DFFF12003E0EF66EDD
:100AA8000B0EF76E000EF86E00EE01F010EE28F057
:100AB8000900F5CFEEFFE550E150FAE100EE29F02C
:100AC8001C0EEE6AE806FDE15F905F92000EF86E7C
:100AD800000109EF00F0F0903B503C10D8B477EFDC
:100AE80005F079EF05F086EF05F002D886EF05F0FE
:100AF8000500FA6E3B50FD6E3C50FE6EF850FF6EDE
:100B0800FA5012001200F2923D503E10D8B48FEF06
:100B180005F091EF05F09EEF05F002D89EEF05F085
:100B28000500FA6E3D50FD6E3E50FE6EF850FF6EA9
:100B3800FA5012001200800F810F820F830F840F6A
:100B4800890F8A0F8B0F8C0F8D0F920F930F940FB5
:100B5800950F960FC60B490100E40B410100475061
:100B68004810D8A4BAEF05F0BCEF05F0BEEF05F0C9
:100B7800C2EF05F047C039F048C03AF012004750BC
:100B88004810D8A4CAEF05F0CCEF05F0CEEF05F079
:100B9800D2EF05F047C03BF048C03CF01200475088
:100BA8004810D8A4DAEF05F0DCEF05F0DEEF05F029
:100BB800E2EF05F047C03DF048C03EF012003F505C
:100BC800D8A4E9EF05F0EBEF05F0EFEF05F0010E23
:100BD8003F6EF1EF05F0000E3F6E1200000E436EFF
:100BE800000E426E000E416E000E406E000E3F6E0B
:020BF8001200E9
:020000040020DA
:08000000FFFFFFFFFFFFFFFF00
:020000040030CA
:0E000000FF02091EFF8181FF0FC00FE00F40BD
:00000001FF
