:0400000007EF00F016
:100008005F82DAED04F046EF05F0240E5A6E000E1A
:100018005B6EA3EC03F01F0E5A6E000E5B6EA3EC32
:1000280003F0F00E476E020E05EC05F0446E000E6C
:10003800476E030E05EC05F0446E3F04D8A427EF85
:1000480000F029EF00F0D5EF00F0CDEF00F03B0E07
:100058004F6E030E28EC05F042C047F0486A000EC8
:100068004A6E0A0E496E20EC04F047504F6E020E9D
:1000780028EC05F0070E5E6E7D0EE82EFED75E2E8C
:10008800FCD700F0370E4F6E030E28EC05F042C087
:1000980047F0486A000E4A6E0A0E496E82EC04F078
:1000A80047504F6E020E28EC05F0070E5E6E7D0E6F
:1000B800E82EFED75E2EFCD700F02F0E4F6E030EF3
:1000C80028EC05F043C047F0486A000E4A6E0A0E55
:1000D800496E20EC04F047504F6E020E28EC05F0F4
:1000E800070E5E6E7D0EE82EFED75E2EFCD700F062
:1000F8001F0E4F6E030E28EC05F043C047F0486A08
:10010800000E4A6E0A0E496E82EC04F047504F6E9C
:10011800020E28EC05F0070E5E6E7D0EE82EFED767
:100128005E2EFCD700F03E0E4F6E030E28EC05F055
:1001380041C047F0486A000E4A6E0A0E496E20EC2C
:1001480004F047504F6E020E28EC05F0070E5E6E65
:100158007D0EE82EFED75E2EFCD700F03D0E4F6ECA
:10016800030E28EC05F041C047F0486A000E4A6EBD
:100178000A0E496E82EC04F047504F6E020E28ECCE
:1001880005F0070E5E6E7D0EE82EFED75E2EFCD7BC
:1001980000F03F50D8A4D3EF00F0D5EF00F02BEFDC
:1001A80000F03F50D8A4DBEF00F0DDEF00F021EFC6
:1001B80000F0000E406E010E4064E5EF00F0E7EF3E
:1001C80000F0E9EF00F08EEF01F03B0E4F6E030EEA
:1001D80028EC05F042C047F0486A000E4A6E0A0E45
:1001E800496E20EC04F047504F6E020E28EC05F0E3
:1001F800070E5E6E7D0EE82EFED75E2EFCD700F051
:10020800370E4F6E030E28EC05F042C047F0486ADF
:10021800000E4A6E0A0E496E82EC04F047504F6E8B
:10022800020E28EC05F0070E5E6E7D0EE82EFED756
:100238005E2EFCD700F02F0E4F6E030E28EC05F053
:1002480043C047F0486A000E4A6E0A0E496E20EC19
:1002580004F047504F6E020E28EC05F0070E5E6E54
:100268007D0EE82EFED75E2EFCD700F01F0E4F6ED7
:10027800030E28EC05F043C047F0486A000E4A6EAA
:100288000A0E496E82EC04F047504F6E020E28ECBD
:1002980005F0070E5E6E7D0EE82EFED75E2EFCD7AB
:1002A80000F03E0E4F6E030E28EC05F041C047F0FB
:1002B800486A000E4A6E0A0E496E20EC04F0475058
:1002C8004F6E020E28EC05F0070E5E6E7D0EE82ECE
:1002D800FED75E2EFCD700F03D0E4F6E030E28ECC5
:1002E80005F041C047F0486A000E4A6E0A0E496E92
:1002F80082EC04F047504F6E020E28EC05F0070E12
:100308005E6E7D0EE82EFED75E2EFCD700F0402AEA
:10031800DFEF00F0432A5A0E4318D8A496EF01F0F5
:1003280098EF01F09BEF01F0422A000E436E3C0E5D
:100338004118D8A4A2EF01F0A4EF01F021EF00F0DA
:10034800000E416E21EF00F007EF00F051505210FF
:10035800D8B4B1EF01F0B3EF01F0D3EF01F051C021
:10036800D9FF52C0DAFFDF30E832E832070B536EAC
:10037800080E5360C2EF01F0C4EF01F0D3EF01F0B3
:1003880051C0D9FF52C0DAFFDF50070B536E040E7D
:100398005364D1EF01F0D3EF01F038EF02F0000E13
:1003A800596E68EF02F051C0D9FF52C0DAFFDF3052
:1003B800E832E832070B536E010E546E532AE7EF0A
:1003C80001F0D8905436532EE5EF01F05450FF0A4F
:1003D800556E51C0D9FF52C0DAFFDF50070B566E79
:1003E8005650020D150EF324D96E000EF420DA6E65
:1003F800DECF57F0DDCF58F057C0D9FF58C0DAFF2D
:100408005550DF1659EF02F051C0D9FF52C0DAFF3C
:10041800DF30E832E832070B536E010E546E532A70
:1004280018EF02F0D8905436532E16EF02F051C050
:10043800D9FF52C0DAFFDF50070B556E5550020D39
:10044800150EF324D96E000EF420DA6EDECF56F0C6
:10045800DDCF57F056C0D9FF57C0DAFF5450DF122E
:1004680059EF02F059EF02F051C0D9FF52C0DAFF3C
:10047800DFBC41EF02F044EF02F0010E45EF02F05D
:10048800000E536E546A5450000AD8B44EEF02F06E
:1004980036EF02F05350000AD8B4D7EF01F0010A42
:1004A800D8B408EF02F036EF02F051C047F052C05E
:1004B80048F051C0D9FF52C0DAFF000EDFBE010E6E
:1004C800496E6AEC02F0596E59501200010E506ED6
:1004D80047504810D8B473EF02F075EF02F095EF6B
:1004E80002F047C0D9FF48C0DAFFDF30E832E8320F
:1004F800070B4A6E080E4A6084EF02F086EF02F09E
:1005080095EF02F047C0D9FF48C0DAFFDF50070B6C
:100518004A6E040E4A6493EF02F095EF02F0F8EF8A
:1005280002F0000E506E0DEF03F047C0D9FF48C02F
:10053800DAFFDF30E832E832070B4A6E010E4B6E05
:100548004A2AA9EF02F0D8904B364A2EA7EF02F0BC
:100558004B50FF0A4C6E47C0D9FF48C0DAFFDF5046
:10056800070B4D6E4D50020D0B0EF324D96E000E85
:10057800F420DA6EDECF4EF0DDCF4FF04EC0D9FF5B
:100588004FC0DAFF4C50DF160DEF03F047C0D9FF1C
:1005980048C0DAFFDF30E832E832070B4A6E010E56
:1005A8004B6E4A2ADAEF02F0D8904B364A2ED8EF33
:1005B80002F047C0D9FF48C0DAFFDF50070B4C6E86
:1005C8004C50020D0B0EF324D96E000EF420DA6E97
:1005D800DECF4DF0DDCF4EF04DC0D9FF4EC0DAFF73
:1005E8004B50DF120DEF03F049504A6E4B6A4B50E7
:1005F800000AD8B402EF03F095EF02F04A50000A5F
:10060800D8B499EF02F0010AD8B4CAEF02F095EF16
:1006180002F05050120047504810D8A416EF03F0CB
:1006280018EF03F080EF03F0A2EF03F020EE03F0E1
:100638004750D9264850DA22DF50D8A426EF03F0D5
:1006480028EF03F02BEF03F0F19C3AEF03F020EED4
:1006580003F04750D9264850DA22DE04D8A437EFF1
:1006680003F039EF03F03AEF03F0F18CA2EF03F057
:1006780020EE03F04750D9264850DA22DF50D8A49C
:1006880048EF03F04AEF03F04DEF03F0F19A3AEF29
:1006980003F020EE03F04750D9264850DA22DE0452
:1006A800D8A459EF03F05BEF03F03AEF03F0F18AB7
:1006B8003AEF03F020EE03F04750D9264850DA22EB
:1006C800DF50D8A46AEF03F06CEF03F06FEF03F08C
:1006D800F1983AEF03F020EE03F04750D92648503E
:1006E800DA22DE04D8A47BEF03F07DEF03F03AEFC3
:1006F80003F0F1883AEF03F020EE02F04750D926D4
:100708004850DA22DF30E832E832070B496E4A6A8D
:100718004A50000AD8B493EF03F018EF03F0495099
:10072800000AD8B41AEF03F0010AD8B43CEF03F07A
:10073800030AD8B45EEF03F018EF03F012005A5022
:100748005B10D8A4AAEF03F0ACEF03F0AEEF03F010
:100758001FEF04F0020E5A24516E000E5B20526EF9
:10076800AAEC01F0FDEF03F0F298F2925AC047F0BC
:100778005BC048F00FEC03F05AC0D9FF5BC0DAFF4A
:10078800DECF47F0DDCF48F0C7EC05F0F28EF28CF3
:10079800F2881FEF04F0F096F0905AC047F05BC063
:1007A80048F00FEC03F0F28EF28C5AC0D9FF5BC010
:1007B800DAFFDECF47F0DDCF48F0B7EC05F0F08682
:1007C800CDEF03F0F098F0925AC047F05BC048F0C4
:1007D8000FEC03F0F28EF28C5AC0D9FF5BC0DAFF3F
:1007E800DECF47F0DDCF48F0A7EC05F0F088CDEF7D
:1007F80003F020EE02F05A50D9265B50DA22DF309F
:10080800E832E832070B5C6E5D6A5D50000AD8B4C6
:1008180010EF04F0ACEF03F05C50000AD8B4B8EF66
:1008280003F0010AD8B4CFEF03F0030AD8B4E6EF17
:1008380003F0ACEF03F01200000E4C6E4ABE29EF35
:1008480004F027EF04F02FEF04F0496C4A1ED8B0EB
:100858004A2A010E4C6E48BE36EF04F034EF04F01D
:100868003CEF04F0476C481ED8B0482A010E4C1AD9
:10087800000E4E6E000E4D6E49504A10D8B447EF28
:1008880004F049EF04F071EF04F0010E4B6E51EFE4
:1008980004F0D89049364A364B2A4AAE56EF04F04F
:1008A80058EF04F04DEF04F0D8904D364E364950CD
:1008B800475C4A504858D8A064EF04F066EF04F04B
:1008C8006BEF04F04950475E4A50485A4D80D89023
:1008D8004A3249324B2E58EF04F04C50D8B477EFD7
:1008E80004F079EF04F07DEF04F04D6C4E1ED8B0A3
:1008F8004E2A4DC047F04EC048F01200000E4C6E14
:1009080048BE8BEF04F089EF04F091EF04F0476CD8
:10091800481ED8B0482A010E4C6E4ABE98EF04F023
:1009280096EF04F09CEF04F0496C4A1ED8B04A2AAE
:1009380049504A10D8B4A3EF04F0A5EF04F0C9EF6A
:1009480004F0010E4B6EADEF04F0D89049364A36EC
:100958004B2A4AAEB2EF04F0B4EF04F0A9EF04F06A
:100968004950475C4A504858D8A0BDEF04F0BFEF43
:1009780004F0C3EF04F04950475E4A50485AD890F3
:100988004A3249324B2EB4EF04F04C50D8B4CFEF72
:1009980004F0D1EF04F0D5EF04F0476C481ED8B04E
:1009A800482A47C047F048C048F012000600FACF6E
:1009B80045F0FBCF46F0F2A8E4EF04F0E6EF04F0D0
:1009C800EFEF04F0F2A2EBEF04F0EDEF04F0EFEF3D
:1009D80004F07BEC05F0F0A6F4EF04F0F6EF04F079
:1009E800FFEF04F0F0A0FBEF04F0FDEF04F0FFEFE1
:1009F80004F063EC05F046C0FBFF45C0FAFF5F92C8
:100A080011004B6E010E4A6E040E4B640EEF05F09A
:100A180010EF05F014EF05F0000E4A6E26EF05F012
:100A28004B50020D150EF324D96E000EF420DA6E29
:100A3800DECF48F0DDCF49F048C0D9FF49C0DAFF22
:100A480047C0DFFF4A501200526E040E52642FEF67
:100A580005F031EF05F033EF05F045EF05F05250A2
:100A6800020D0B0EF324D96E000EF420DA6EDECFE1
:100A780050F0DDCF51F050C0D9FF51C0DAFF4FC060
:100A8800DFFF1200260EF66E0B0EF76E000EF86EE4
:100A980000EE01F010EE28F00900F5CFEEFFE5506A
:100AA800E150FAE100EE29F01C0EEE6AE806FDE1DD
:100AB8005F905F92000EF86E000109EF00F0F09071
:100AC8003B503C10D8B46BEF05F06DEF05F07AEFB2
:100AD80005F002D87AEF05F00500FA6E3B50FD6E7E
:100AE8003C50FE6EF850FF6EFA5012001200F2925F
:100AF8003D503E10D8B483EF05F085EF05F092EF36
:100B080005F002D892EF05F00500FA6E3D50FD6E33
:100B18003E50FE6EF850FF6EFA5012001200800F21
:100B2800810F820F830F840F890F8A0F8B0F8C0F11
:100B38008D0F920F930F940F950F960FAE0B4901DF
:100B480000CC0B41010047504810D8A4AEEF05F087
:100B5800B0EF05F0B2EF05F0B6EF05F047C039F099
:100B680048C03AF0120047504810D8A4BEEF05F02C
:100B7800C0EF05F0C2EF05F0C6EF05F047C03BF047
:100B880048C03CF0120047504810D8A4CEEF05F0FA
:100B9800D0EF05F0D2EF05F0D6EF05F047C03DF0F5
:100BA80048C03EF012003F50D8A4DDEF05F0DFEF5B
:100BB80005F0E3EF05F0010E3F6EE5EF05F0000EDE
:100BC8003F6E1200000E436E000E426E000E416E24
:0A0BD800000E406E000E3F6E12008A
:020000040020DA
:08000000FFFFFFFFFFFFFFFF00
:020000040030CA
:0E000000FF02091EFF8181FF0FC00FE00F40BD
:00000001FF
